{
  "contractName": "Insurance",
  "abi": [
    {
      "anonymous": false,
      "inputs": [
        {
          "indexed": false,
          "internalType": "uint256",
          "name": "id",
          "type": "uint256"
        },
        {
          "indexed": false,
          "internalType": "string",
          "name": "name",
          "type": "string"
        },
        {
          "indexed": false,
          "internalType": "uint256",
          "name": "price",
          "type": "uint256"
        },
        {
          "indexed": false,
          "internalType": "uint256",
          "name": "insurancePrice",
          "type": "uint256"
        },
        {
          "indexed": false,
          "internalType": "address payable",
          "name": "owner",
          "type": "address"
        },
        {
          "indexed": false,
          "internalType": "address payable",
          "name": "insuranceOwner",
          "type": "address"
        },
        {
          "indexed": false,
          "internalType": "bool",
          "name": "purchased",
          "type": "bool"
        },
        {
          "indexed": false,
          "internalType": "bool",
          "name": "insurancePurchased",
          "type": "bool"
        }
      ],
      "name": "InsurancePurchased",
      "type": "event"
    },
    {
      "anonymous": false,
      "inputs": [
        {
          "indexed": false,
          "internalType": "bool",
          "name": "notStolen",
          "type": "bool"
        }
      ],
      "name": "NotStolen",
      "type": "event"
    },
    {
      "anonymous": false,
      "inputs": [
        {
          "indexed": false,
          "internalType": "bool",
          "name": "claimedPolice",
          "type": "bool"
        }
      ],
      "name": "PoliceClaimed",
      "type": "event"
    },
    {
      "anonymous": false,
      "inputs": [
        {
          "indexed": false,
          "internalType": "uint256",
          "name": "id",
          "type": "uint256"
        },
        {
          "indexed": false,
          "internalType": "string",
          "name": "name",
          "type": "string"
        },
        {
          "indexed": false,
          "internalType": "uint256",
          "name": "price",
          "type": "uint256"
        },
        {
          "indexed": false,
          "internalType": "uint256",
          "name": "insurancePrice",
          "type": "uint256"
        },
        {
          "indexed": false,
          "internalType": "address payable",
          "name": "owner",
          "type": "address"
        },
        {
          "indexed": false,
          "internalType": "address payable",
          "name": "insuranceOwner",
          "type": "address"
        },
        {
          "indexed": false,
          "internalType": "bool",
          "name": "purchased",
          "type": "bool"
        },
        {
          "indexed": false,
          "internalType": "bool",
          "name": "insurancePurchased",
          "type": "bool"
        },
        {
          "indexed": false,
          "internalType": "bool",
          "name": "claimedPolice",
          "type": "bool"
        },
        {
          "indexed": false,
          "internalType": "bool",
          "name": "claimedRepair",
          "type": "bool"
        },
        {
          "indexed": false,
          "internalType": "bool",
          "name": "isStolen",
          "type": "bool"
        },
        {
          "indexed": false,
          "internalType": "bool",
          "name": "isRepaired",
          "type": "bool"
        },
        {
          "indexed": false,
          "internalType": "bool",
          "name": "isReimbursed",
          "type": "bool"
        },
        {
          "indexed": false,
          "internalType": "bool",
          "name": "paidRepairShop",
          "type": "bool"
        }
      ],
      "name": "ProductCreated",
      "type": "event"
    },
    {
      "anonymous": false,
      "inputs": [
        {
          "indexed": false,
          "internalType": "uint256",
          "name": "id",
          "type": "uint256"
        },
        {
          "indexed": false,
          "internalType": "string",
          "name": "name",
          "type": "string"
        },
        {
          "indexed": false,
          "internalType": "uint256",
          "name": "price",
          "type": "uint256"
        },
        {
          "indexed": false,
          "internalType": "uint256",
          "name": "insurancePrice",
          "type": "uint256"
        },
        {
          "indexed": false,
          "internalType": "address payable",
          "name": "owner",
          "type": "address"
        },
        {
          "indexed": false,
          "internalType": "address payable",
          "name": "insuranceOwner",
          "type": "address"
        },
        {
          "indexed": false,
          "internalType": "bool",
          "name": "purchased",
          "type": "bool"
        }
      ],
      "name": "ProductPurchased",
      "type": "event"
    },
    {
      "anonymous": false,
      "inputs": [
        {
          "indexed": false,
          "internalType": "bool",
          "name": "isReimbursed",
          "type": "bool"
        }
      ],
      "name": "Reimbursed",
      "type": "event"
    },
    {
      "anonymous": false,
      "inputs": [
        {
          "indexed": false,
          "internalType": "bool",
          "name": "claimedRepair",
          "type": "bool"
        }
      ],
      "name": "RepairClaimed",
      "type": "event"
    },
    {
      "anonymous": false,
      "inputs": [
        {
          "indexed": false,
          "internalType": "bool",
          "name": "paidRepairShop",
          "type": "bool"
        }
      ],
      "name": "RepairShopPaid",
      "type": "event"
    },
    {
      "anonymous": false,
      "inputs": [
        {
          "indexed": false,
          "internalType": "bool",
          "name": "isRepaired",
          "type": "bool"
        }
      ],
      "name": "Repaired",
      "type": "event"
    },
    {
      "anonymous": false,
      "inputs": [
        {
          "indexed": false,
          "internalType": "bool",
          "name": "isStolen",
          "type": "bool"
        }
      ],
      "name": "Stolen",
      "type": "event"
    },
    {
      "constant": true,
      "inputs": [],
      "name": "productCount",
      "outputs": [
        {
          "internalType": "uint256",
          "name": "",
          "type": "uint256"
        }
      ],
      "payable": false,
      "stateMutability": "view",
      "type": "function"
    },
    {
      "constant": true,
      "inputs": [
        {
          "internalType": "uint256",
          "name": "",
          "type": "uint256"
        }
      ],
      "name": "products",
      "outputs": [
        {
          "internalType": "uint256",
          "name": "id",
          "type": "uint256"
        },
        {
          "internalType": "string",
          "name": "name",
          "type": "string"
        },
        {
          "internalType": "uint256",
          "name": "price",
          "type": "uint256"
        },
        {
          "internalType": "uint256",
          "name": "insurancePrice",
          "type": "uint256"
        },
        {
          "internalType": "address payable",
          "name": "owner",
          "type": "address"
        },
        {
          "internalType": "address payable",
          "name": "insuranceOwner",
          "type": "address"
        },
        {
          "internalType": "bool",
          "name": "purchased",
          "type": "bool"
        },
        {
          "internalType": "bool",
          "name": "insurancePurchased",
          "type": "bool"
        },
        {
          "internalType": "bool",
          "name": "claimedPolice",
          "type": "bool"
        },
        {
          "internalType": "bool",
          "name": "claimedRepair",
          "type": "bool"
        },
        {
          "internalType": "bool",
          "name": "isStolen",
          "type": "bool"
        },
        {
          "internalType": "bool",
          "name": "isRepaired",
          "type": "bool"
        },
        {
          "internalType": "bool",
          "name": "isReimbursed",
          "type": "bool"
        },
        {
          "internalType": "bool",
          "name": "paidRepairShop",
          "type": "bool"
        }
      ],
      "payable": false,
      "stateMutability": "view",
      "type": "function"
    },
    {
      "constant": false,
      "inputs": [
        {
          "internalType": "string",
          "name": "_name",
          "type": "string"
        },
        {
          "internalType": "uint256",
          "name": "_price",
          "type": "uint256"
        },
        {
          "internalType": "uint256",
          "name": "_insurancePrice",
          "type": "uint256"
        }
      ],
      "name": "createProduct",
      "outputs": [],
      "payable": false,
      "stateMutability": "nonpayable",
      "type": "function"
    },
    {
      "constant": false,
      "inputs": [
        {
          "internalType": "uint256",
          "name": "_id",
          "type": "uint256"
        },
        {
          "internalType": "address",
          "name": "_repairShop",
          "type": "address"
        },
        {
          "internalType": "address",
          "name": "_police",
          "type": "address"
        }
      ],
      "name": "purchaseProduct",
      "outputs": [],
      "payable": true,
      "stateMutability": "payable",
      "type": "function"
    },
    {
      "constant": false,
      "inputs": [
        {
          "internalType": "uint256",
          "name": "_id",
          "type": "uint256"
        },
        {
          "internalType": "address",
          "name": "_repairShop",
          "type": "address"
        },
        {
          "internalType": "address",
          "name": "_police",
          "type": "address"
        }
      ],
      "name": "purchaseInsurance",
      "outputs": [],
      "payable": true,
      "stateMutability": "payable",
      "type": "function"
    },
    {
      "constant": false,
      "inputs": [
        {
          "internalType": "uint256",
          "name": "_id",
          "type": "uint256"
        },
        {
          "internalType": "address",
          "name": "_repairShop",
          "type": "address"
        },
        {
          "internalType": "address",
          "name": "_police",
          "type": "address"
        }
      ],
      "name": "claimPolice",
      "outputs": [],
      "payable": false,
      "stateMutability": "nonpayable",
      "type": "function"
    },
    {
      "constant": false,
      "inputs": [
        {
          "internalType": "uint256",
          "name": "_id",
          "type": "uint256"
        },
        {
          "internalType": "address",
          "name": "_repairShop",
          "type": "address"
        },
        {
          "internalType": "address",
          "name": "_police",
          "type": "address"
        }
      ],
      "name": "claimRepair",
      "outputs": [],
      "payable": false,
      "stateMutability": "nonpayable",
      "type": "function"
    },
    {
      "constant": false,
      "inputs": [
        {
          "internalType": "uint256",
          "name": "_id",
          "type": "uint256"
        },
        {
          "internalType": "address",
          "name": "_repairShop",
          "type": "address"
        },
        {
          "internalType": "address",
          "name": "_police",
          "type": "address"
        }
      ],
      "name": "stolen",
      "outputs": [],
      "payable": false,
      "stateMutability": "nonpayable",
      "type": "function"
    },
    {
      "constant": false,
      "inputs": [
        {
          "internalType": "uint256",
          "name": "_id",
          "type": "uint256"
        },
        {
          "internalType": "address",
          "name": "_repairShop",
          "type": "address"
        },
        {
          "internalType": "address",
          "name": "_police",
          "type": "address"
        }
      ],
      "name": "repaired",
      "outputs": [],
      "payable": false,
      "stateMutability": "nonpayable",
      "type": "function"
    },
    {
      "constant": false,
      "inputs": [
        {
          "internalType": "uint256",
          "name": "_id",
          "type": "uint256"
        },
        {
          "internalType": "address",
          "name": "_repairShop",
          "type": "address"
        },
        {
          "internalType": "address",
          "name": "_police",
          "type": "address"
        }
      ],
      "name": "reimburse",
      "outputs": [],
      "payable": true,
      "stateMutability": "payable",
      "type": "function"
    },
    {
      "constant": false,
      "inputs": [
        {
          "internalType": "uint256",
          "name": "_id",
          "type": "uint256"
        },
        {
          "internalType": "address payable",
          "name": "_repairShop",
          "type": "address"
        },
        {
          "internalType": "address",
          "name": "_police",
          "type": "address"
        }
      ],
      "name": "payRepairShop",
      "outputs": [],
      "payable": true,
      "stateMutability": "payable",
      "type": "function"
    }
  ],
  "bytecode": "0x60806040526000805534801561001457600080fd5b50615722806100246000396000f3fe60806040526004361061009c5760003560e01c8063bb7f0d7c11610064578063bb7f0d7c1461045b578063c117e08a146104c9578063c730407314610544578063d07de8f9146105b2578063d50d23091461062d578063e0f6ef87146106a85761009c565b80631297bbb1146100a1578063356e4be81461010f578063362578d21461018a5780637acc0b20146101f85780637bf12b1c1461037f575b600080fd5b61010d600480360360608110156100b757600080fd5b8101908080359060200190929190803573ffffffffffffffffffffffffffffffffffffffff169060200190929190803573ffffffffffffffffffffffffffffffffffffffff1690602001909291905050506106d3565b005b34801561011b57600080fd5b506101886004803603606081101561013257600080fd5b8101908080359060200190929190803573ffffffffffffffffffffffffffffffffffffffff169060200190929190803573ffffffffffffffffffffffffffffffffffffffff169060200190929190505050610eb1565b005b6101f6600480360360608110156101a057600080fd5b8101908080359060200190929190803573ffffffffffffffffffffffffffffffffffffffff169060200190929190803573ffffffffffffffffffffffffffffffffffffffff169060200190929190505050611753565b005b34801561020457600080fd5b506102316004803603602081101561021b57600080fd5b81019080803590602001909291905050506121c0565b604051808f8152602001806020018e81526020018d81526020018c73ffffffffffffffffffffffffffffffffffffffff1673ffffffffffffffffffffffffffffffffffffffff1681526020018b73ffffffffffffffffffffffffffffffffffffffff1673ffffffffffffffffffffffffffffffffffffffff1681526020018a1515151581526020018915151515815260200188151515158152602001871515151581526020018615151515815260200185151515158152602001841515151581526020018315151515815260200182810382528f818151815260200191508051906020019080838360005b8381101561033757808201518184015260208101905061031c565b50505050905090810190601f1680156103645780820380516001836020036101000a031916815260200191505b509f5050505050505050505050505050505060405180910390f35b34801561038b57600080fd5b50610459600480360360608110156103a257600080fd5b81019080803590602001906401000000008111156103bf57600080fd5b8201836020820111156103d157600080fd5b803590602001918460018302840111640100000000831117156103f357600080fd5b91908080601f016020809104026020016040519081016040528093929190818152602001838380828437600081840152601f19601f820116905080830192505050505050509192919290803590602001909291908035906020019092919050505061236c565b005b6104c76004803603606081101561047157600080fd5b8101908080359060200190929190803573ffffffffffffffffffffffffffffffffffffffff169060200190929190803573ffffffffffffffffffffffffffffffffffffffff169060200190929190505050612882565b005b3480156104d557600080fd5b50610542600480360360608110156104ec57600080fd5b8101908080359060200190929190803573ffffffffffffffffffffffffffffffffffffffff169060200190929190803573ffffffffffffffffffffffffffffffffffffffff16906020019092919050505061305a565b005b6105b06004803603606081101561055a57600080fd5b8101908080359060200190929190803573ffffffffffffffffffffffffffffffffffffffff169060200190929190803573ffffffffffffffffffffffffffffffffffffffff1690602001909291905050506138a4565b005b3480156105be57600080fd5b5061062b600480360360608110156105d557600080fd5b8101908080359060200190929190803573ffffffffffffffffffffffffffffffffffffffff169060200190929190803573ffffffffffffffffffffffffffffffffffffffff169060200190929190505050614219565b005b34801561063957600080fd5b506106a66004803603606081101561065057600080fd5b8101908080359060200190929190803573ffffffffffffffffffffffffffffffffffffffff169060200190929190803573ffffffffffffffffffffffffffffffffffffffff169060200190929190505050614a63565b005b3480156106b457600080fd5b506106bd615305565b6040518082815260200191505060405180910390f35b6106db61530b565b60016000858152602001908152602001600020604051806101c001604052908160008201548152602001600182018054600181600116156101000203166002900480601f01602080910402602001604051908101604052809291908181526020018280546001816001161561010002031660029004801561079d5780601f106107725761010080835404028352916020019161079d565b820191906000526020600020905b81548152906001019060200180831161078057829003601f168201915b5050505050815260200160028201548152602001600382015481526020016004820160009054906101000a900473ffffffffffffffffffffffffffffffffffffffff1673ffffffffffffffffffffffffffffffffffffffff1673ffffffffffffffffffffffffffffffffffffffff1681526020016005820160009054906101000a900473ffffffffffffffffffffffffffffffffffffffff1673ffffffffffffffffffffffffffffffffffffffff1673ffffffffffffffffffffffffffffffffffffffff1681526020016005820160149054906101000a900460ff161515151581526020016005820160159054906101000a900460ff161515151581526020016005820160169054906101000a900460ff161515151581526020016005820160179054906101000a900460ff161515151581526020016005820160189054906101000a900460ff161515151581526020016005820160199054906101000a900460ff1615151515815260200160058201601a9054906101000a900460ff1615151515815260200160058201601b9054906101000a900460ff16151515158152505090508061014001516109b8576040517f08c379a000000000000000000000000000000000000000000000000000000000815260040180806020018281038252600a8152602001807f6e6f742073746f6c656e0000000000000000000000000000000000000000000081525060200191505060405180910390fd5b6000816080015190503373ffffffffffffffffffffffffffffffffffffffff168173ffffffffffffffffffffffffffffffffffffffff161415610a46576040517f08c379a00000000000000000000000000000000000000000000000000000000081526004018080602001828103825260318152602001806154f36031913960400191505060405180910390fd5b3373ffffffffffffffffffffffffffffffffffffffff168473ffffffffffffffffffffffffffffffffffffffff161415610ae8576040517f08c379a00000000000000000000000000000000000000000000000000000000081526004018080602001828103825260178152602001807f7265706169722063616e6e6f74207265696d627572736500000000000000000081525060200191505060405180910390fd5b3373ffffffffffffffffffffffffffffffffffffffff168373ffffffffffffffffffffffffffffffffffffffff161415610b8a576040517f08c379a00000000000000000000000000000000000000000000000000000000081526004018080602001828103825260178152602001807f706f6c6963652063616e6e6f74207265696d627572736500000000000000000081525060200191505060405180910390fd5b8160a0015173ffffffffffffffffffffffffffffffffffffffff163373ffffffffffffffffffffffffffffffffffffffff1614610c2f576040517f08c379a000000000000000000000000000000000000000000000000000000000815260040180806020018281038252601d8152602001807f6f6e6c792070726f647563742073686f702063616e20646f207468697300000081525060200191505060405180910390fd5b6001826101800190151590811515815250508160016000878152602001908152602001600020600082015181600001556020820151816001019080519060200190610c7b9291906153b6565b50604082015181600201556060820151816003015560808201518160040160006101000a81548173ffffffffffffffffffffffffffffffffffffffff021916908373ffffffffffffffffffffffffffffffffffffffff16021790555060a08201518160050160006101000a81548173ffffffffffffffffffffffffffffffffffffffff021916908373ffffffffffffffffffffffffffffffffffffffff16021790555060c08201518160050160146101000a81548160ff02191690831515021790555060e08201518160050160156101000a81548160ff0219169083151502179055506101008201518160050160166101000a81548160ff0219169083151502179055506101208201518160050160176101000a81548160ff0219169083151502179055506101408201518160050160186101000a81548160ff0219169083151502179055506101608201518160050160196101000a81548160ff02191690831515021790555061018082015181600501601a6101000a81548160ff0219169083151502179055506101a082015181600501601b6101000a81548160ff0219169083151502179055509050508073ffffffffffffffffffffffffffffffffffffffff166108fc349081150290604051600060405180830381858888f19350505050158015610e6d573d6000803e3d6000fd5b507fd78b15e9df9a5f7179a82a1da177280adfc9efeaca8702d818f8c4e63f042cff6001604051808215151515815260200191505060405180910390a15050505050565b610eb961530b565b60016000858152602001908152602001600020604051806101c001604052908160008201548152602001600182018054600181600116156101000203166002900480601f016020809104026020016040519081016040528092919081815260200182805460018160011615610100020316600290048015610f7b5780601f10610f5057610100808354040283529160200191610f7b565b820191906000526020600020905b815481529060010190602001808311610f5e57829003601f168201915b5050505050815260200160028201548152602001600382015481526020016004820160009054906101000a900473ffffffffffffffffffffffffffffffffffffffff1673ffffffffffffffffffffffffffffffffffffffff1673ffffffffffffffffffffffffffffffffffffffff1681526020016005820160009054906101000a900473ffffffffffffffffffffffffffffffffffffffff1673ffffffffffffffffffffffffffffffffffffffff1673ffffffffffffffffffffffffffffffffffffffff1681526020016005820160149054906101000a900460ff161515151581526020016005820160159054906101000a900460ff161515151581526020016005820160169054906101000a900460ff161515151581526020016005820160179054906101000a900460ff161515151581526020016005820160189054906101000a900460ff161515151581526020016005820160199054906101000a900460ff1615151515815260200160058201601a9054906101000a900460ff1615151515815260200160058201601b9054906101000a900460ff16151515158152505090508060c00151611178576040517f08c379a00000000000000000000000000000000000000000000000000000000081526004018080602001828103825260228152602001806155246022913960400191505060405180910390fd5b8060e001516111d2576040517f08c379a000000000000000000000000000000000000000000000000000000000815260040180806020018281038252602481526020018061556d6024913960400191505060405180910390fd5b8061012001511561122e576040517f08c379a00000000000000000000000000000000000000000000000000000000081526004018080602001828103825260228152602001806156096022913960400191505060405180910390fd5b8061010001511561128a576040517f08c379a00000000000000000000000000000000000000000000000000000000081526004018080602001828103825260228152602001806156826022913960400191505060405180910390fd5b3373ffffffffffffffffffffffffffffffffffffffff168160a0015173ffffffffffffffffffffffffffffffffffffffff161415611330576040517f08c379a00000000000000000000000000000000000000000000000000000000081526004018080602001828103825260138152602001807f73656c6c65722063616e6e6f7420636c61696d0000000000000000000000000081525060200191505060405180910390fd5b3373ffffffffffffffffffffffffffffffffffffffff168373ffffffffffffffffffffffffffffffffffffffff1614156113d2576040517f08c379a000000000000000000000000000000000000000000000000000000000815260040180806020018281038252601a8152602001807f7265706169722063616e6e6f7420636c61696d20706f6c69636500000000000081525060200191505060405180910390fd5b3373ffffffffffffffffffffffffffffffffffffffff168273ffffffffffffffffffffffffffffffffffffffff161415611474576040517f08c379a000000000000000000000000000000000000000000000000000000000815260040180806020018281038252601a8152602001807f706f6c6963652063616e6e6f7420636c61696d20706f6c69636500000000000081525060200191505060405180910390fd5b806080015173ffffffffffffffffffffffffffffffffffffffff163373ffffffffffffffffffffffffffffffffffffffff1614611519576040517f08c379a000000000000000000000000000000000000000000000000000000000815260040180806020018281038252601c8152602001807f6f6e6c792070726f64756374206f776e65722063616e20636c61696d0000000081525060200191505060405180910390fd5b60018161010001901515908115158152505080600160008681526020019081526020016000206000820151816000015560208201518160010190805190602001906115659291906153b6565b50604082015181600201556060820151816003015560808201518160040160006101000a81548173ffffffffffffffffffffffffffffffffffffffff021916908373ffffffffffffffffffffffffffffffffffffffff16021790555060a08201518160050160006101000a81548173ffffffffffffffffffffffffffffffffffffffff021916908373ffffffffffffffffffffffffffffffffffffffff16021790555060c08201518160050160146101000a81548160ff02191690831515021790555060e08201518160050160156101000a81548160ff0219169083151502179055506101008201518160050160166101000a81548160ff0219169083151502179055506101208201518160050160176101000a81548160ff0219169083151502179055506101408201518160050160186101000a81548160ff0219169083151502179055506101608201518160050160196101000a81548160ff02191690831515021790555061018082015181600501601a6101000a81548160ff0219169083151502179055506101a082015181600501601b6101000a81548160ff0219169083151502179055509050507f474e85f867d1eb17b3fb25d2f4b984cfc488679def09d65c935a215023205a216001604051808215151515815260200191505060405180910390a150505050565b61175b61530b565b60016000858152602001908152602001600020604051806101c001604052908160008201548152602001600182018054600181600116156101000203166002900480601f01602080910402602001604051908101604052809291908181526020018280546001816001161561010002031660029004801561181d5780601f106117f25761010080835404028352916020019161181d565b820191906000526020600020905b81548152906001019060200180831161180057829003601f168201915b5050505050815260200160028201548152602001600382015481526020016004820160009054906101000a900473ffffffffffffffffffffffffffffffffffffffff1673ffffffffffffffffffffffffffffffffffffffff1673ffffffffffffffffffffffffffffffffffffffff1681526020016005820160009054906101000a900473ffffffffffffffffffffffffffffffffffffffff1673ffffffffffffffffffffffffffffffffffffffff1673ffffffffffffffffffffffffffffffffffffffff1681526020016005820160149054906101000a900460ff161515151581526020016005820160159054906101000a900460ff161515151581526020016005820160169054906101000a900460ff161515151581526020016005820160179054906101000a900460ff161515151581526020016005820160189054906101000a900460ff161515151581526020016005820160199054906101000a900460ff1615151515815260200160058201601a9054906101000a900460ff1615151515815260200160058201601b9054906101000a900460ff161515151581525050905060008160a001519050600082600001511180156119e35750600054826000015111155b611a55576040517f08c379a00000000000000000000000000000000000000000000000000000000081526004018080602001828103825260148152602001807f70726f64756374206973206e6f742076616c696400000000000000000000000081525060200191505060405180910390fd5b8160600151341015611acf576040517f08c379a00000000000000000000000000000000000000000000000000000000081526004018080602001828103825260118152602001807f77726f6e67206d6f6e65792076616c756500000000000000000000000000000081525060200191505060405180910390fd5b8160c00151611b46576040517f08c379a00000000000000000000000000000000000000000000000000000000081526004018080602001828103825260188152602001807f70726f64756374206973206e6f7420707572636861736564000000000000000081525060200191505060405180910390fd5b8160e0015115611bbe576040517f08c379a00000000000000000000000000000000000000000000000000000000081526004018080602001828103825260168152602001807f696e737572616e6365206973207075726368617365640000000000000000000081525060200191505060405180910390fd5b3373ffffffffffffffffffffffffffffffffffffffff168173ffffffffffffffffffffffffffffffffffffffff161415611c60576040517f08c379a00000000000000000000000000000000000000000000000000000000081526004018080602001828103825260138152602001807f73656c6c6572206973207468652062757965720000000000000000000000000081525060200191505060405180910390fd5b3373ffffffffffffffffffffffffffffffffffffffff168473ffffffffffffffffffffffffffffffffffffffff161415611d02576040517f08c379a000000000000000000000000000000000000000000000000000000000815260040180806020018281038252601b8152602001807f7265706169722063616e6e6f742062757920696e737572616e6365000000000081525060200191505060405180910390fd5b3373ffffffffffffffffffffffffffffffffffffffff168373ffffffffffffffffffffffffffffffffffffffff161415611da4576040517f08c379a000000000000000000000000000000000000000000000000000000000815260040180806020018281038252601b8152602001807f706f6c6963652063616e6e6f742062757920696e737572616e6365000000000081525060200191505060405180910390fd5b816080015173ffffffffffffffffffffffffffffffffffffffff163373ffffffffffffffffffffffffffffffffffffffff1614611e2c576040517f08c379a00000000000000000000000000000000000000000000000000000000081526004018080602001828103825260288152602001806156c66028913960400191505060405180910390fd5b60018260e00190151590811515815250508160016000878152602001908152602001600020600082015181600001556020820151816001019080519060200190611e779291906153b6565b50604082015181600201556060820151816003015560808201518160040160006101000a81548173ffffffffffffffffffffffffffffffffffffffff021916908373ffffffffffffffffffffffffffffffffffffffff16021790555060a08201518160050160006101000a81548173ffffffffffffffffffffffffffffffffffffffff021916908373ffffffffffffffffffffffffffffffffffffffff16021790555060c08201518160050160146101000a81548160ff02191690831515021790555060e08201518160050160156101000a81548160ff0219169083151502179055506101008201518160050160166101000a81548160ff0219169083151502179055506101208201518160050160176101000a81548160ff0219169083151502179055506101408201518160050160186101000a81548160ff0219169083151502179055506101608201518160050160196101000a81548160ff02191690831515021790555061018082015181600501601a6101000a81548160ff0219169083151502179055506101a082015181600501601b6101000a81548160ff0219169083151502179055509050508073ffffffffffffffffffffffffffffffffffffffff166108fc349081150290604051600060405180830381858888f19350505050158015612069573d6000803e3d6000fd5b507ff1541d2179b1bdb3aa4380a42ebad463b137a00b0664a13b021cdf4f660717c060005483602001518460400151856060015186608001518760a001518860c00151600160405180898152602001806020018881526020018781526020018673ffffffffffffffffffffffffffffffffffffffff1673ffffffffffffffffffffffffffffffffffffffff1681526020018573ffffffffffffffffffffffffffffffffffffffff1673ffffffffffffffffffffffffffffffffffffffff1681526020018415151515815260200183151515158152602001828103825289818151815260200191508051906020019080838360005b8381101561217857808201518184015260208101905061215d565b50505050905090810190601f1680156121a55780820380516001836020036101000a031916815260200191505b50995050505050505050505060405180910390a15050505050565b6001602052806000526040600020600091509050806000015490806001018054600181600116156101000203166002900480601f0160208091040260200160405190810160405280929190818152602001828054600181600116156101000203166002900480156122725780601f1061224757610100808354040283529160200191612272565b820191906000526020600020905b81548152906001019060200180831161225557829003601f168201915b5050505050908060020154908060030154908060040160009054906101000a900473ffffffffffffffffffffffffffffffffffffffff16908060050160009054906101000a900473ffffffffffffffffffffffffffffffffffffffff16908060050160149054906101000a900460ff16908060050160159054906101000a900460ff16908060050160169054906101000a900460ff16908060050160179054906101000a900460ff16908060050160189054906101000a900460ff16908060050160199054906101000a900460ff169080600501601a9054906101000a900460ff169080600501601b9054906101000a900460ff1690508e565b60008351116123be576040517f08c379a0000000000000000000000000000000000000000000000000000000008152600401808060200182810382526000815260200160200191505060405180910390fd5b6000821161240f576040517f08c379a0000000000000000000000000000000000000000000000000000000008152600401808060200182810382526000815260200160200191505060405180910390fd5b60008111612460576040517f08c379a0000000000000000000000000000000000000000000000000000000008152600401808060200182810382526000815260200160200191505060405180910390fd5b6000808154809291906001019190505550604051806101c0016040528060005481526020018481526020018381526020018281526020013373ffffffffffffffffffffffffffffffffffffffff1681526020013373ffffffffffffffffffffffffffffffffffffffff16815260200160001515815260200160001515815260200160001515815260200160001515815260200160001515815260200160001515815260200160001515815260200160001515815250600160008054815260200190815260200160002060008201518160000155602082015181600101908051906020019061254f9291906153b6565b50604082015181600201556060820151816003015560808201518160040160006101000a81548173ffffffffffffffffffffffffffffffffffffffff021916908373ffffffffffffffffffffffffffffffffffffffff16021790555060a08201518160050160006101000a81548173ffffffffffffffffffffffffffffffffffffffff021916908373ffffffffffffffffffffffffffffffffffffffff16021790555060c08201518160050160146101000a81548160ff02191690831515021790555060e08201518160050160156101000a81548160ff0219169083151502179055506101008201518160050160166101000a81548160ff0219169083151502179055506101208201518160050160176101000a81548160ff0219169083151502179055506101408201518160050160186101000a81548160ff0219169083151502179055506101608201518160050160196101000a81548160ff02191690831515021790555061018082015181600501601a6101000a81548160ff0219169083151502179055506101a082015181600501601b6101000a81548160ff0219169083151502179055509050507f7dc113ebe2a59227be95a700733728215380342016add8ff01c2406f685134656000548484843333600080600080600080600080604051808f8152602001806020018e81526020018d81526020018c73ffffffffffffffffffffffffffffffffffffffff1673ffffffffffffffffffffffffffffffffffffffff1681526020018b73ffffffffffffffffffffffffffffffffffffffff1673ffffffffffffffffffffffffffffffffffffffff1681526020018a1515151581526020018915151515815260200188151515158152602001871515151581526020018615151515815260200185151515158152602001841515151581526020018315151515815260200182810382528f818151815260200191508051906020019080838360005b8381101561283657808201518184015260208101905061281b565b50505050905090810190601f1680156128635780820380516001836020036101000a031916815260200191505b509f5050505050505050505050505050505060405180910390a1505050565b61288a61530b565b60016000858152602001908152602001600020604051806101c001604052908160008201548152602001600182018054600181600116156101000203166002900480601f01602080910402602001604051908101604052809291908181526020018280546001816001161561010002031660029004801561294c5780601f106129215761010080835404028352916020019161294c565b820191906000526020600020905b81548152906001019060200180831161292f57829003601f168201915b5050505050815260200160028201548152602001600382015481526020016004820160009054906101000a900473ffffffffffffffffffffffffffffffffffffffff1673ffffffffffffffffffffffffffffffffffffffff1673ffffffffffffffffffffffffffffffffffffffff1681526020016005820160009054906101000a900473ffffffffffffffffffffffffffffffffffffffff1673ffffffffffffffffffffffffffffffffffffffff1673ffffffffffffffffffffffffffffffffffffffff1681526020016005820160149054906101000a900460ff161515151581526020016005820160159054906101000a900460ff161515151581526020016005820160169054906101000a900460ff161515151581526020016005820160179054906101000a900460ff161515151581526020016005820160189054906101000a900460ff161515151581526020016005820160199054906101000a900460ff1615151515815260200160058201601a9054906101000a900460ff1615151515815260200160058201601b9054906101000a900460ff161515151581525050905060006002826040015181612aff57fe5b049050816101600151612b7a576040517f08c379a000000000000000000000000000000000000000000000000000000000815260040180806020018281038252600c8152602001807f6e6f74207265706169726564000000000000000000000000000000000000000081525060200191505060405180910390fd5b803414612bef576040517f08c379a000000000000000000000000000000000000000000000000000000000815260040180806020018281038252601c8152602001807f72657061697220636861726765206973206e6f7420636f72726563740000000081525060200191505060405180910390fd5b3373ffffffffffffffffffffffffffffffffffffffff168473ffffffffffffffffffffffffffffffffffffffff161415612c91576040517f08c379a00000000000000000000000000000000000000000000000000000000081526004018080602001828103825260198152602001807f7265706169722063616e6e6f74207061792068696d73656c660000000000000081525060200191505060405180910390fd5b3373ffffffffffffffffffffffffffffffffffffffff168373ffffffffffffffffffffffffffffffffffffffff161415612d33576040517f08c379a000000000000000000000000000000000000000000000000000000000815260040180806020018281038252601c8152602001807f706f6c6963652063616e6e6f742070617920746865207265706169720000000081525060200191505060405180910390fd5b8160a0015173ffffffffffffffffffffffffffffffffffffffff163373ffffffffffffffffffffffffffffffffffffffff1614612dd8576040517f08c379a000000000000000000000000000000000000000000000000000000000815260040180806020018281038252601d8152602001807f6f6e6c792070726f647563742073686f702063616e20646f207468697300000081525060200191505060405180910390fd5b6001826101a00190151590811515815250508160016000878152602001908152602001600020600082015181600001556020820151816001019080519060200190612e249291906153b6565b50604082015181600201556060820151816003015560808201518160040160006101000a81548173ffffffffffffffffffffffffffffffffffffffff021916908373ffffffffffffffffffffffffffffffffffffffff16021790555060a08201518160050160006101000a81548173ffffffffffffffffffffffffffffffffffffffff021916908373ffffffffffffffffffffffffffffffffffffffff16021790555060c08201518160050160146101000a81548160ff02191690831515021790555060e08201518160050160156101000a81548160ff0219169083151502179055506101008201518160050160166101000a81548160ff0219169083151502179055506101208201518160050160176101000a81548160ff0219169083151502179055506101408201518160050160186101000a81548160ff0219169083151502179055506101608201518160050160196101000a81548160ff02191690831515021790555061018082015181600501601a6101000a81548160ff0219169083151502179055506101a082015181600501601b6101000a81548160ff0219169083151502179055509050508373ffffffffffffffffffffffffffffffffffffffff166108fc349081150290604051600060405180830381858888f19350505050158015613016573d6000803e3d6000fd5b507f273b055fcea08aae10080716dea8512b64be15ecdebe178911786e1fc6418ed26001604051808215151515815260200191505060405180910390a15050505050565b61306261530b565b60016000858152602001908152602001600020604051806101c001604052908160008201548152602001600182018054600181600116156101000203166002900480601f0160208091040260200160405190810160405280929190818152602001828054600181600116156101000203166002900480156131245780601f106130f957610100808354040283529160200191613124565b820191906000526020600020905b81548152906001019060200180831161310757829003601f168201915b5050505050815260200160028201548152602001600382015481526020016004820160009054906101000a900473ffffffffffffffffffffffffffffffffffffffff1673ffffffffffffffffffffffffffffffffffffffff1673ffffffffffffffffffffffffffffffffffffffff1681526020016005820160009054906101000a900473ffffffffffffffffffffffffffffffffffffffff1673ffffffffffffffffffffffffffffffffffffffff1673ffffffffffffffffffffffffffffffffffffffff1681526020016005820160149054906101000a900460ff161515151581526020016005820160159054906101000a900460ff161515151581526020016005820160169054906101000a900460ff161515151581526020016005820160179054906101000a900460ff161515151581526020016005820160189054906101000a900460ff161515151581526020016005820160199054906101000a900460ff1615151515815260200160058201601a9054906101000a900460ff1615151515815260200160058201601b9054906101000a900460ff16151515158152505090508060c00151613321576040517f08c379a00000000000000000000000000000000000000000000000000000000081526004018080602001828103825260228152602001806155246022913960400191505060405180910390fd5b8060e0015161337b576040517f08c379a000000000000000000000000000000000000000000000000000000000815260040180806020018281038252602481526020018061556d6024913960400191505060405180910390fd5b806101000151156133d7576040517f08c379a00000000000000000000000000000000000000000000000000000000081526004018080602001828103825260278152602001806155466027913960400191505060405180910390fd5b806101200151613432576040517f08c379a00000000000000000000000000000000000000000000000000000000081526004018080602001828103825260268152602001806154cd6026913960400191505060405180910390fd5b3373ffffffffffffffffffffffffffffffffffffffff16816080015173ffffffffffffffffffffffffffffffffffffffff1614156134bb576040517f08c379a000000000000000000000000000000000000000000000000000000000815260040180806020018281038252602c81526020018061545c602c913960400191505060405180910390fd5b3373ffffffffffffffffffffffffffffffffffffffff168160a0015173ffffffffffffffffffffffffffffffffffffffff161415613544576040517f08c379a000000000000000000000000000000000000000000000000000000000815260040180806020018281038252602d815260200180615655602d913960400191505060405180910390fd5b3373ffffffffffffffffffffffffffffffffffffffff168273ffffffffffffffffffffffffffffffffffffffff1614156135c9576040517f08c379a00000000000000000000000000000000000000000000000000000000081526004018080602001828103825260248152602001806154886024913960400191505060405180910390fd5b8273ffffffffffffffffffffffffffffffffffffffff163373ffffffffffffffffffffffffffffffffffffffff161461366a576040517f08c379a00000000000000000000000000000000000000000000000000000000081526004018080602001828103825260178152602001807f6f6e6c79207265706169722063616e20646f207468697300000000000000000081525060200191505060405180910390fd5b60018161016001901515908115158152505080600160008681526020019081526020016000206000820151816000015560208201518160010190805190602001906136b69291906153b6565b50604082015181600201556060820151816003015560808201518160040160006101000a81548173ffffffffffffffffffffffffffffffffffffffff021916908373ffffffffffffffffffffffffffffffffffffffff16021790555060a08201518160050160006101000a81548173ffffffffffffffffffffffffffffffffffffffff021916908373ffffffffffffffffffffffffffffffffffffffff16021790555060c08201518160050160146101000a81548160ff02191690831515021790555060e08201518160050160156101000a81548160ff0219169083151502179055506101008201518160050160166101000a81548160ff0219169083151502179055506101208201518160050160176101000a81548160ff0219169083151502179055506101408201518160050160186101000a81548160ff0219169083151502179055506101608201518160050160196101000a81548160ff02191690831515021790555061018082015181600501601a6101000a81548160ff0219169083151502179055506101a082015181600501601b6101000a81548160ff0219169083151502179055509050507fad0e2117edca91dc76684a2a464127c0b38e52323d5d0f92f337fbf0181da0986001604051808215151515815260200191505060405180910390a150505050565b6138ac61530b565b60016000858152602001908152602001600020604051806101c001604052908160008201548152602001600182018054600181600116156101000203166002900480601f01602080910402602001604051908101604052809291908181526020018280546001816001161561010002031660029004801561396e5780601f106139435761010080835404028352916020019161396e565b820191906000526020600020905b81548152906001019060200180831161395157829003601f168201915b5050505050815260200160028201548152602001600382015481526020016004820160009054906101000a900473ffffffffffffffffffffffffffffffffffffffff1673ffffffffffffffffffffffffffffffffffffffff1673ffffffffffffffffffffffffffffffffffffffff1681526020016005820160009054906101000a900473ffffffffffffffffffffffffffffffffffffffff1673ffffffffffffffffffffffffffffffffffffffff1673ffffffffffffffffffffffffffffffffffffffff1681526020016005820160149054906101000a900460ff161515151581526020016005820160159054906101000a900460ff161515151581526020016005820160169054906101000a900460ff161515151581526020016005820160179054906101000a900460ff161515151581526020016005820160189054906101000a900460ff161515151581526020016005820160199054906101000a900460ff1615151515815260200160058201601a9054906101000a900460ff1615151515815260200160058201601b9054906101000a900460ff161515151581525050905060008160800151905060008260000151118015613b345750600054826000015111155b613ba6576040517f08c379a00000000000000000000000000000000000000000000000000000000081526004018080602001828103825260148152602001807f70726f64756374206973206e6f742076616c696400000000000000000000000081525060200191505060405180910390fd5b8160400151341015613c20576040517f08c379a00000000000000000000000000000000000000000000000000000000081526004018080602001828103825260118152602001807f77726f6e67206d6f6e65792076616c756500000000000000000000000000000081525060200191505060405180910390fd5b8160c0015115613c98576040517f08c379a000000000000000000000000000000000000000000000000000000000815260040180806020018281038252601c8152602001807f70726f647563742069732070757263686173656420616c72656164790000000081525060200191505060405180910390fd5b3373ffffffffffffffffffffffffffffffffffffffff168173ffffffffffffffffffffffffffffffffffffffff161415613d3a576040517f08c379a00000000000000000000000000000000000000000000000000000000081526004018080602001828103825260138152602001807f73656c6c6572206973207468652062757965720000000000000000000000000081525060200191505060405180910390fd5b3373ffffffffffffffffffffffffffffffffffffffff168473ffffffffffffffffffffffffffffffffffffffff161415613dbf576040517f08c379a00000000000000000000000000000000000000000000000000000000081526004018080602001828103825260218152602001806154ac6021913960400191505060405180910390fd5b3373ffffffffffffffffffffffffffffffffffffffff168373ffffffffffffffffffffffffffffffffffffffff161415613e61576040517f08c379a000000000000000000000000000000000000000000000000000000000815260040180806020018281038252601c8152602001807f706f6c6963652063616e6e6f74206372656174652070726f647563740000000081525060200191505060405180910390fd5b33826080019073ffffffffffffffffffffffffffffffffffffffff16908173ffffffffffffffffffffffffffffffffffffffff168152505060018260c00190151590811515815250508160016000878152602001908152602001600020600082015181600001556020820151816001019080519060200190613ee49291906153b6565b50604082015181600201556060820151816003015560808201518160040160006101000a81548173ffffffffffffffffffffffffffffffffffffffff021916908373ffffffffffffffffffffffffffffffffffffffff16021790555060a08201518160050160006101000a81548173ffffffffffffffffffffffffffffffffffffffff021916908373ffffffffffffffffffffffffffffffffffffffff16021790555060c08201518160050160146101000a81548160ff02191690831515021790555060e08201518160050160156101000a81548160ff0219169083151502179055506101008201518160050160166101000a81548160ff0219169083151502179055506101208201518160050160176101000a81548160ff0219169083151502179055506101408201518160050160186101000a81548160ff0219169083151502179055506101608201518160050160196101000a81548160ff02191690831515021790555061018082015181600501601a6101000a81548160ff0219169083151502179055506101a082015181600501601b6101000a81548160ff0219169083151502179055509050508073ffffffffffffffffffffffffffffffffffffffff166108fc349081150290604051600060405180830381858888f193505050501580156140d6573d6000803e3d6000fd5b507f36ac992abe2ddbea8dc80d0a4f5c26d17ee5afd63cbb211c696f7d5163864231600054836020015184604001518560600151338760a00151600160405180888152602001806020018781526020018681526020018573ffffffffffffffffffffffffffffffffffffffff1673ffffffffffffffffffffffffffffffffffffffff1681526020018473ffffffffffffffffffffffffffffffffffffffff1673ffffffffffffffffffffffffffffffffffffffff16815260200183151515158152602001828103825288818151815260200191508051906020019080838360005b838110156141d25780820151818401526020810190506141b7565b50505050905090810190601f1680156141ff5780820380516001836020036101000a031916815260200191505b509850505050505050505060405180910390a15050505050565b61422161530b565b60016000858152602001908152602001600020604051806101c001604052908160008201548152602001600182018054600181600116156101000203166002900480601f0160208091040260200160405190810160405280929190818152602001828054600181600116156101000203166002900480156142e35780601f106142b8576101008083540402835291602001916142e3565b820191906000526020600020905b8154815290600101906020018083116142c657829003601f168201915b5050505050815260200160028201548152602001600382015481526020016004820160009054906101000a900473ffffffffffffffffffffffffffffffffffffffff1673ffffffffffffffffffffffffffffffffffffffff1673ffffffffffffffffffffffffffffffffffffffff1681526020016005820160009054906101000a900473ffffffffffffffffffffffffffffffffffffffff1673ffffffffffffffffffffffffffffffffffffffff1673ffffffffffffffffffffffffffffffffffffffff1681526020016005820160149054906101000a900460ff161515151581526020016005820160159054906101000a900460ff161515151581526020016005820160169054906101000a900460ff161515151581526020016005820160179054906101000a900460ff161515151581526020016005820160189054906101000a900460ff161515151581526020016005820160199054906101000a900460ff1615151515815260200160058201601a9054906101000a900460ff1615151515815260200160058201601b9054906101000a900460ff16151515158152505090508060c001516144e0576040517f08c379a00000000000000000000000000000000000000000000000000000000081526004018080602001828103825260228152602001806155246022913960400191505060405180910390fd5b8060e0015161453a576040517f08c379a000000000000000000000000000000000000000000000000000000000815260040180806020018281038252602481526020018061556d6024913960400191505060405180910390fd5b80610120015115614596576040517f08c379a00000000000000000000000000000000000000000000000000000000081526004018080602001828103825260278152602001806155916027913960400191505060405180910390fd5b8061010001516145f1576040517f08c379a00000000000000000000000000000000000000000000000000000000081526004018080602001828103825260268152602001806155b86026913960400191505060405180910390fd5b3373ffffffffffffffffffffffffffffffffffffffff16816080015173ffffffffffffffffffffffffffffffffffffffff16141561467a576040517f08c379a000000000000000000000000000000000000000000000000000000000815260040180806020018281038252602a81526020018061562b602a913960400191505060405180910390fd5b3373ffffffffffffffffffffffffffffffffffffffff168160a0015173ffffffffffffffffffffffffffffffffffffffff161415614703576040517f08c379a000000000000000000000000000000000000000000000000000000000815260040180806020018281038252602b8152602001806155de602b913960400191505060405180910390fd5b3373ffffffffffffffffffffffffffffffffffffffff168373ffffffffffffffffffffffffffffffffffffffff161415614788576040517f08c379a00000000000000000000000000000000000000000000000000000000081526004018080602001828103825260228152602001806156a46022913960400191505060405180910390fd5b8173ffffffffffffffffffffffffffffffffffffffff163373ffffffffffffffffffffffffffffffffffffffff1614614829576040517f08c379a00000000000000000000000000000000000000000000000000000000081526004018080602001828103825260168152602001807f6f6e6c7920706f6c6963652063616e206465636964650000000000000000000081525060200191505060405180910390fd5b60018161014001901515908115158152505080600160008681526020019081526020016000206000820151816000015560208201518160010190805190602001906148759291906153b6565b50604082015181600201556060820151816003015560808201518160040160006101000a81548173ffffffffffffffffffffffffffffffffffffffff021916908373ffffffffffffffffffffffffffffffffffffffff16021790555060a08201518160050160006101000a81548173ffffffffffffffffffffffffffffffffffffffff021916908373ffffffffffffffffffffffffffffffffffffffff16021790555060c08201518160050160146101000a81548160ff02191690831515021790555060e08201518160050160156101000a81548160ff0219169083151502179055506101008201518160050160166101000a81548160ff0219169083151502179055506101208201518160050160176101000a81548160ff0219169083151502179055506101408201518160050160186101000a81548160ff0219169083151502179055506101608201518160050160196101000a81548160ff02191690831515021790555061018082015181600501601a6101000a81548160ff0219169083151502179055506101a082015181600501601b6101000a81548160ff0219169083151502179055509050507f4c3032070622f679067fe6488b2e2e0379f629b4e8cfc6a803f3d3cba95cb7ac6001604051808215151515815260200191505060405180910390a150505050565b614a6b61530b565b60016000858152602001908152602001600020604051806101c001604052908160008201548152602001600182018054600181600116156101000203166002900480601f016020809104026020016040519081016040528092919081815260200182805460018160011615610100020316600290048015614b2d5780601f10614b0257610100808354040283529160200191614b2d565b820191906000526020600020905b815481529060010190602001808311614b1057829003601f168201915b5050505050815260200160028201548152602001600382015481526020016004820160009054906101000a900473ffffffffffffffffffffffffffffffffffffffff1673ffffffffffffffffffffffffffffffffffffffff1673ffffffffffffffffffffffffffffffffffffffff1681526020016005820160009054906101000a900473ffffffffffffffffffffffffffffffffffffffff1673ffffffffffffffffffffffffffffffffffffffff1673ffffffffffffffffffffffffffffffffffffffff1681526020016005820160149054906101000a900460ff161515151581526020016005820160159054906101000a900460ff161515151581526020016005820160169054906101000a900460ff161515151581526020016005820160179054906101000a900460ff161515151581526020016005820160189054906101000a900460ff161515151581526020016005820160199054906101000a900460ff1615151515815260200160058201601a9054906101000a900460ff1615151515815260200160058201601b9054906101000a900460ff16151515158152505090508060c00151614d2a576040517f08c379a00000000000000000000000000000000000000000000000000000000081526004018080602001828103825260228152602001806155246022913960400191505060405180910390fd5b8060e00151614d84576040517f08c379a000000000000000000000000000000000000000000000000000000000815260040180806020018281038252602481526020018061556d6024913960400191505060405180910390fd5b80610100015115614de0576040517f08c379a00000000000000000000000000000000000000000000000000000000081526004018080602001828103825260228152602001806156826022913960400191505060405180910390fd5b80610120015115614e3c576040517f08c379a00000000000000000000000000000000000000000000000000000000081526004018080602001828103825260228152602001806156096022913960400191505060405180910390fd5b3373ffffffffffffffffffffffffffffffffffffffff168160a0015173ffffffffffffffffffffffffffffffffffffffff161415614ee2576040517f08c379a00000000000000000000000000000000000000000000000000000000081526004018080602001828103825260138152602001807f73656c6c65722063616e6e6f7420636c61696d0000000000000000000000000081525060200191505060405180910390fd5b3373ffffffffffffffffffffffffffffffffffffffff168373ffffffffffffffffffffffffffffffffffffffff161415614f84576040517f08c379a000000000000000000000000000000000000000000000000000000000815260040180806020018281038252601a8152602001807f7265706169722063616e6e6f7420636c61696d2072657061697200000000000081525060200191505060405180910390fd5b3373ffffffffffffffffffffffffffffffffffffffff168273ffffffffffffffffffffffffffffffffffffffff161415615026576040517f08c379a000000000000000000000000000000000000000000000000000000000815260040180806020018281038252601a8152602001807f706f6c6963652063616e6e6f7420636c61696d2072657061697200000000000081525060200191505060405180910390fd5b806080015173ffffffffffffffffffffffffffffffffffffffff163373ffffffffffffffffffffffffffffffffffffffff16146150cb576040517f08c379a000000000000000000000000000000000000000000000000000000000815260040180806020018281038252601c8152602001807f6f6e6c792070726f64756374206f776e65722063616e20636c61696d0000000081525060200191505060405180910390fd5b60018161012001901515908115158152505080600160008681526020019081526020016000206000820151816000015560208201518160010190805190602001906151179291906153b6565b50604082015181600201556060820151816003015560808201518160040160006101000a81548173ffffffffffffffffffffffffffffffffffffffff021916908373ffffffffffffffffffffffffffffffffffffffff16021790555060a08201518160050160006101000a81548173ffffffffffffffffffffffffffffffffffffffff021916908373ffffffffffffffffffffffffffffffffffffffff16021790555060c08201518160050160146101000a81548160ff02191690831515021790555060e08201518160050160156101000a81548160ff0219169083151502179055506101008201518160050160166101000a81548160ff0219169083151502179055506101208201518160050160176101000a81548160ff0219169083151502179055506101408201518160050160186101000a81548160ff0219169083151502179055506101608201518160050160196101000a81548160ff02191690831515021790555061018082015181600501601a6101000a81548160ff0219169083151502179055506101a082015181600501601b6101000a81548160ff0219169083151502179055509050507ff9b6f0074be23a2dff38346b8d82d7e7607559ad1d2b4347b28e20cff0e54cb56001604051808215151515815260200191505060405180910390a150505050565b60005481565b604051806101c0016040528060008152602001606081526020016000815260200160008152602001600073ffffffffffffffffffffffffffffffffffffffff168152602001600073ffffffffffffffffffffffffffffffffffffffff1681526020016000151581526020016000151581526020016000151581526020016000151581526020016000151581526020016000151581526020016000151581526020016000151581525090565b828054600181600116156101000203166002900490600052602060002090601f016020900481019282601f106153f757805160ff1916838001178555615425565b82800160010185558215615425579182015b82811115615424578251825591602001919060010190615409565b5b5090506154329190615436565b5090565b61545891905b8082111561545457600081600090555060010161543c565b5090565b9056fe62757965722063616e6e6f7420646563696465206966206974206973207265706169726564206f72206e6f74706f6c6963652063616e6e6f7420646563696465207265706169726564206f72206e6f747265706169722073686f702063616e6e6f74206372656174652070726f6475637472657061697220736572766963652073686f756c6420626520636c61696d656420666972737470726f64756374206f776e65722063616e6e6f74207265696d62757273652070726f6475637420746f2068696d73656c66796f752068617665206e6f7420707572636861736564207468652070726f64756374706f6c696365207365727669636520697320636c61696d656420666f722074686973206974656d796f752068617665206e6f74207075726368617365642074686520696e737572616e6365726570616972207365727669636520697320636c61696d656420666f722074686973206974656d706f6c69636520736572766963652073686f756c6420626520636c61696d656420666972737473656c6c65722063616e6e6f74206465636964652069662069742069732073746f6c656e206f72206e6f7472657061697220697320636c61696d656420666f7220746869732070726f6475637462757965722063616e6e6f74206465636964652069662069742069732073746f6c656e206f72206e6f7473656c6c65722063616e6e6f7420646563696465206966206974206973207265706169726564206f72206e6f74706f6c69636520697320636c61696d656420666f7220746869732070726f647563747265706169722063616e6e6f74206465636964652073746f6c656e206f72206e6f746f6e6c792070726f64756374206f776e65722063616e206275792074686520696e737572616e6365a265627a7a72315820bfce09e840fbe767d97fc8ffddf8b07e7a571aac7af4d96936aaf596e0d09fc464736f6c63430005100032",
  "source": "pragma solidity ^0.5.0;\n\ncontract Insurance {\n\n    uint256 public productCount = 0;\n\n    mapping(uint256 => Product) public products;\n\n    struct Product {\n        uint256 id;\n        string name;\n        uint256 price;\n        uint256 insurancePrice;\n        address payable owner;\n        address payable insuranceOwner;\n        bool purchased;\n        bool insurancePurchased;\n        bool claimedPolice;\n        bool claimedRepair;\n        bool isStolen;\n        bool isRepaired;\n        bool isReimbursed;\n        bool paidRepairShop;\n    }\n\n    event ProductCreated(\n        uint256 id,\n        string name,\n        uint256 price,\n        uint256 insurancePrice,\n        address payable owner,\n        address payable insuranceOwner,\n        bool purchased,\n        bool insurancePurchased,\n        bool claimedPolice,\n        bool claimedRepair,\n        bool isStolen,\n        bool isRepaired,\n        bool isReimbursed,\n        bool paidRepairShop\n    );\n\n    event ProductPurchased(\n        uint256 id,\n        string name,\n        uint256 price,\n        uint256 insurancePrice,\n        address payable owner,\n        address payable insuranceOwner,\n        bool purchased\n    );\n\n    event InsurancePurchased(\n        uint256 id,\n        string name,\n        uint256 price,\n        uint256 insurancePrice,\n        address payable owner,\n        address payable insuranceOwner,\n        bool purchased,\n        bool insurancePurchased\n    );\n\n    event PoliceClaimed(bool claimedPolice);\n    event RepairClaimed(bool claimedRepair);\n    event Stolen(bool isStolen);\n    event NotStolen(bool notStolen);\n    event Repaired(bool isRepaired);\n    event Reimbursed(bool isReimbursed);\n    event RepairShopPaid(bool paidRepairShop);\n\n    function createProduct(string memory _name, uint256 _price, uint256 _insurancePrice) public {\n        require(bytes(_name).length > 0, \"\");\n        require(_price > 0, \"\");\n        require(_insurancePrice > 0, \"\");\n        productCount++;\n        products[productCount] = Product(\n            productCount,\n            _name,\n            _price,\n            _insurancePrice,\n            msg.sender,\n            msg.sender,\n            false,\n            false,\n            false,\n            false,\n            false,\n            false,\n            false,\n            false\n        );\n        emit ProductCreated(\n            productCount,\n            _name,\n            _price,\n            _insurancePrice,\n            msg.sender,\n            msg.sender,\n            false,\n            false,\n            false,\n            false,\n            false,\n            false,\n            false,\n            false\n        );\n    }\n\n    function purchaseProduct(uint256 _id, address _repairShop, address _police) public payable {\n        Product memory _product = products[_id];\n        address payable _seller = _product.owner;\n        require(_product.id > 0 && _product.id <= productCount, \"product is not valid\");\n        require(msg.value >= _product.price, \"wrong money value\");\n        require(!_product.purchased, \"product is purchased already\");\n        require(_seller != msg.sender, \"seller is the buyer\");\n        require(_repairShop != msg.sender, 'repair shop cannot create product');\n        require(_police != msg.sender, 'police cannot create product');\n        _product.owner = msg.sender;\n        _product.purchased = true;\n        products[_id] = _product;\n        address(_seller).transfer(msg.value);\n        emit ProductPurchased(\n            productCount,\n            _product.name,\n            _product.price,\n            _product.insurancePrice,\n            msg.sender,\n            _product.insuranceOwner,\n            true\n        );\n    }\n\n    function purchaseInsurance(uint256 _id, address _repairShop, address _police) public payable {\n        Product memory _product = products[_id];\n        address payable _seller = _product.insuranceOwner;\n        require(_product.id > 0 && _product.id <= productCount, \"product is not valid\");\n        require(msg.value >= _product.insurancePrice, \"wrong money value\");\n        require(_product.purchased, \"product is not purchased\");\n        require(!_product.insurancePurchased, \"insurance is purchased\");\n        require(_seller != msg.sender, \"seller is the buyer\");\n        require(_repairShop != msg.sender, \"repair cannot buy insurance\");\n        require(_police != msg.sender, \"police cannot buy insurance\");\n        require(msg.sender == _product.owner, \"only product owner can buy the insurance\");\n        _product.insurancePurchased = true;\n        products[_id] = _product;\n        address(_seller).transfer(msg.value);\n        emit InsurancePurchased(\n            productCount,\n            _product.name,\n            _product.price,\n            _product.insurancePrice,\n            _product.owner,\n            _product.insuranceOwner,\n            _product.purchased,\n            true\n        );\n    }\n\n    function claimPolice(uint256 _id, address _repairShop, address _police) public {\n      Product memory _product = products[_id];\n      require(_product.purchased, 'you have not purchased the product');\n      require(_product.insurancePurchased, 'you have not purchased the insurance');\n      require(!_product.claimedRepair, 'repair is claimed for this product');\n      require(!_product.claimedPolice, 'police is claimed for this product');\n      require(_product.insuranceOwner != msg.sender, 'seller cannot claim');\n      require(_repairShop != msg.sender, \"repair cannot claim police\");\n      require(_police != msg.sender, \"police cannot claim police\");\n      require(msg.sender == _product.owner, \"only product owner can claim\");\n      _product.claimedPolice = true;\n      products[_id] = _product;\n      emit PoliceClaimed(true);\n    }\n\n    function claimRepair(uint256 _id, address _repairShop, address _police) public {\n      Product memory _product = products[_id];\n      require(_product.purchased, 'you have not purchased the product');\n      require(_product.insurancePurchased, 'you have not purchased the insurance');\n      require(!_product.claimedPolice, 'police is claimed for this product');\n      require(!_product.claimedRepair, 'repair is claimed for this product');\n      require(_product.insuranceOwner != msg.sender, 'seller cannot claim');\n      require(_repairShop != msg.sender, \"repair cannot claim repair\");\n      require(_police != msg.sender, \"police cannot claim repair\");\n      require(msg.sender == _product.owner, \"only product owner can claim\");\n      _product.claimedRepair = true;\n      products[_id] = _product;\n      emit RepairClaimed(true);\n    }\n\n    function stolen(uint256 _id, address _repairShop, address _police) public {\n      Product memory _product = products[_id];\n      require(_product.purchased, 'you have not purchased the product');\n      require(_product.insurancePurchased, 'you have not purchased the insurance');\n      require(!_product.claimedRepair, 'repair service is claimed for this item');\n      require(_product.claimedPolice, 'police service should be claimed first');\n      require(_product.owner != msg.sender, 'buyer cannot decide if it is stolen or not');\n      require(_product.insuranceOwner != msg.sender, 'seller cannot decide if it is stolen or not');\n      require(_repairShop != msg.sender, \"repair cannot decide stolen or not\");\n      require(msg.sender == _police, \"only police can decide\");\n      _product.isStolen = true;\n      products[_id] = _product;\n      emit Stolen(true);\n    }\n\n    function repaired(uint _id, address _repairShop, address _police) public {\n       Product memory _product = products[_id];\n      require(_product.purchased, 'you have not purchased the product');\n      require(_product.insurancePurchased, 'you have not purchased the insurance');\n      require(!_product.claimedPolice, 'police service is claimed for this item');\n      require(_product.claimedRepair, 'repair service should be claimed first');\n      require(_product.owner != msg.sender, 'buyer cannot decide if it is repaired or not');\n      require(_product.insuranceOwner != msg.sender, 'seller cannot decide if it is repaired or not');\n      require(_police != msg.sender, \"police cannot decide repaired or not\");\n      require(msg.sender == _repairShop, \"only repair can do this\");\n      _product.isRepaired = true;\n      products[_id] = _product;\n      emit Repaired(true);\n    }\n\n    function reimburse(uint256 _id, address _repairShop, address _police) public payable {\n      Product memory _product = products[_id];\n      require(_product.isStolen, 'not stolen');\n      address payable _refundTo = _product.owner;\n      require(_refundTo != msg.sender, \"product owner cannot reimburse product to himself\");\n      require(_repairShop != msg.sender, \"repair cannot reimburse\");\n      require(_police != msg.sender, \"police cannot reimburse\");\n      require(msg.sender == _product.insuranceOwner, \"only product shop can do this\");\n      _product.isReimbursed = true;\n      products[_id] = _product;\n      address(_refundTo).transfer(msg.value);\n      emit Reimbursed(true);\n    }\n\n    function payRepairShop(uint256 _id, address payable _repairShop,  address _police) public payable {\n      Product memory _product = products[_id];\n      uint256 repairCharge = _product.price / 2;\n      require(_product.isRepaired, 'not repaired');\n      require(msg.value == repairCharge, 'repair charge is not correct');\n      require(_repairShop != msg.sender, \"repair cannot pay himself\");\n      require(_police != msg.sender, \"police cannot pay the repair\");\n      require(msg.sender == _product.insuranceOwner, \"only product shop can do this\");\n      _product.paidRepairShop = true;\n      products[_id] = _product;\n      address(_repairShop).transfer(msg.value);\n      emit RepairShopPaid(true);\n    }\n}\n",
  "sourcePath": "D:\\Desktop\\eth-insurance-master\\eth-insurance-master\\src\\contracts\\Insurance.sol",
  "compiler": {
    "name": "solc",
    "version": "0.5.16+commit.9c3226ce.Emscripten.clang"
  },
  "schemaVersion": "3.4.6",
  "updatedAt": "2022-03-19T17:34:27.640Z",
  "networkType": "ethereum",
  "devdoc": {
    "methods": {}
  },
  "userdoc": {
    "methods": {}
  }
}